:100000000C945D000C9485000C9485000C94850084
:100010000C9485000C9485000C9485000C9485004C
:100020000C9485000C9485000C9485000C94AB0412
:100030000C9485000C9485000C9485000C9485002C
:100040000C9461040C9485000C942F040C94090406
:100050000C9485000C9485000C9485000C9485000C
:100060000C9485000C94850000000008000201003B
:100070000003040700000000000000000000000072
:10008000250028002B0000000000240027002A0083
:10009000040404040404040402020202020203032E
:1000A0000303030301020408102040800102040836
:1000B0001020010204081020670511241FBECFEF95
:1000C000D8E0DEBFCDBF11E0A0E0B1E0E8E2F9E1A9
:1000D00002C005900D92A434B107D9F722E0A4E440
:1000E000B1E001C01D92A933B207E1F710E0CDE500
:1000F000D0E004C02197FE010E948C0CCC35D107C2
:10010000C9F70E94EF050C94920C0C94000090E04B
:10011000FC01EC55FF4F249180579F4FFC018491C7
:10012000882399F090E0880F991FFC01EA57FF4F50
:10013000A591B491FC01E458FF4F859194918FB73C
:10014000F894EC91E22BEC938FBF0895AF92BF929D
:10015000CF92DF92EF92FF920F931F93CF93DF9393
:100160006C017B018B01040F151FEB015E01AE18C2
:10017000BF08C017D10759F06991D601ED91FC91E4
:100180000190F081E02DC6010995892B79F7C50111
:10019000DF91CF911F910F91FF90EF90DF90CF9063
:1001A000BF90AF900895FC01538D448D252F30E012
:1001B000842F90E0821B930B541710F0CF96089574
:1001C00001970895FC01918D828D981761F0A28DA1
:1001D000AE0FBF2FB11D5D968C91928D9F5F9F7367
:1001E000928F90E008958FEF9FEF0895FC01918D1D
:1001F000828D981731F0828DE80FF11D858D90E08A
:1002000008958FEF9FEF0895FC01918D228D892F26
:1002100090E0805C9F4F821B91098F73992708950E
:100220008CE591E00E94040121E0892B09F420E093
:10023000822F089580E090E0892B29F00E94100120
:1002400081110C9400000895FC01A48DA80FB92F12
:10025000B11DA35ABF4F2C91848D90E001968F73EE
:100260009927848FA689B7892C93A089B1898C910D
:10027000837080648C93938D848D981306C002885C
:10028000F389E02D80818F7D80830895EF92FF9226
:100290000F931F93CF93DF93EC0181E0888F9B8DA9
:1002A0008C8D98131AC0E889F989808185FF15C063
:1002B0009FB7F894EE89FF896083E889F989808186
:1002C0008370806480839FBF81E090E0DF91CF9155
:1002D0001F910F91FF90EF900895F62E0B8D10E077
:1002E0000F5F1F4F0F731127E02E8C8D8E110CC0E6
:1002F0000FB607FCFACFE889F989808185FFF5CF31
:10030000CE010E942401F1CFEB8DEC0FFD2FF11DEA
:10031000E35AFF4FF0829FB7F8940B8FEA89FB896D
:1003200080818062CFCFCF93DF93EC01888D8823CB
:10033000B9F0AA89BB89E889F9898C9185FD03C048
:10034000808186FD0DC00FB607FCF7CF8C9185FF2D
:10035000F2CF808185FFEDCFCE010E942401E9CF4D
:10036000DF91CF91089590E0FC01E859FF4F24916F
:10037000FC01EC55FF4F3491FC01E057FF4FE49135
:10038000EE23C9F0222339F0233001F1A8F4213003
:1003900019F1223029F1F0E0EE0FFF1FE458FF4F72
:1003A000A591B4918FB7F894EC91611126C0309566
:1003B0003E233C938FBF08952730A9F02830C9F021
:1003C000243049F7809180008F7D03C080918000A8
:1003D0008F7780938000DFCF84B58F7784BDDBCFAC
:1003E00084B58F7DFBCF8091B0008F778093B00074
:1003F000D2CF8091B0008F7DF9CF3E2BDACF3FB7BF
:10040000F89480914A0190914B01A0914C01B091D8
:100410004D0126B5A89B05C02F3F19F00196A11DDF
:10042000B11D3FBFBA2FA92F982F8827BC01CD013E
:10043000620F711D811D911D42E0660F771F881F9D
:10044000991F4A95D1F70895089590E080E00895A6
:10045000CF93DF93EC0160E08E810E94B30161E0F5
:100460008E810E94B30160E08E810E94B3018BE80F
:1004700091E00197F1F7DF91CF910895CF92DF924C
:10048000EF92FF920F931F93CF93DF936C017C0148
:1004900087E0E80EF11CD0E0C0E0062F10E0B801C4
:1004A0000C2E02C0759567950A94E2F76170F7010A
:1004B00081917F010E94B3012196C430D10579F763
:1004C000C601DF91CF911F910F91FF90EF90DF90C8
:1004D000CF900C942802CF92DF92EF92FF920F936D
:1004E0001F93CF93DF93EC01F62E642F8C810E9433
:1004F000B3018D818F3F19F060E00E94B3010F2D91
:1005000010E08F8584FF25C06E0187E0C80ED11CE6
:10051000F12CE12CB8010E2C02C0759567950A9458
:10052000E2F76170F60181916F010E94B301FFEF64
:10053000EF1AFF0A88E0E816F10461F7CE01DF91B7
:10054000CF911F910F91FF90EF90DF90CF900C947F
:100550002802B80184E0759567958A95E1F7CE0188
:100560000E943E026F2DCE01DF91CF911F910F911E
:10057000FF90EF90DF90CF900C943E0240E0682F08
:100580008EE192E00C946B02CF93DF93823029F4DA
:1005900090912D02986090932D02809331021092D9
:1005A000320280E48093330280E18093340280E55C
:1005B00080933502809122020E948700809123025D
:1005C0008F3F11F00E948700809124020E948700D3
:1005D000CEE1D2E09E012E51324080912D0284FD69
:1005E0000AC084E090E02196281739073CF48E81F8
:1005F0000E948700EFCF88E090E0F5CF8BE39DE08D
:100600000197F1F760E0809122020E94B30160E05F
:10061000809124020E94B301809123028F3F19F040
:1006200060E00E94B30180912D0284FD39C063E037
:100630008EE192E00E943E02CBE4D6E4CE01019727
:10064000F1F763E08EE192E00E943E022197F1F71C
:1006500063E08EE192E00E943E0283E592E0019722
:10066000F1F762E08EE192E00E943E0280912D025D
:1006700080620E94BE0284E080932E028CE00E9481
:10068000BE0281E00E94BE028BE39FE10197F1F779
:1006900082E080932F0286E0DF91CF910C94BE021E
:1006A00080620E94BE028BE496E40197F1F780918C
:1006B0002D0280620E94BE0283E592E00197F1F76D
:1006C00080912D0280620E94BE02D0CF90913102B3
:1006D000691710F06FEF690FE62FF0E0E25EFD4F53
:1006E0009489890F80680C94BE0241E00E946B02DD
:1006F00081E090E00895FB0101900020E9F7319737
:10070000AF01461B570BDC01ED91FC910280F38198
:10071000E02D09948F929F92AF92BF92EF92FF9239
:100720000F931F93CF93DF93CDB7DEB7A1970FB68B
:10073000F894DEBF0FBECDBF7C01FA01CB0119A238
:10074000223008F42AE08E010F5D1F4F822E912C7B
:10075000B12CA12CBF01A50194010E940C0AF90142
:10076000CA016A300CF5605DD8016E938D01232BB0
:10077000242B252B79F790E080E0109721F0BD0124
:10078000C7010E947B03A1960FB6F894DEBF0FBE8F
:10079000CDBFDF91CF911F910F91FF90EF90BF9050
:1007A000AF909F908F900895695CDECFCF92DF92DB
:1007B000EF92FF920F931F93CF93DF93EC016A01A7
:1007C0007B01E881F9810190F081E02D6DE20995CE
:1007D0008C0144275527BA014C195D096E097F0920
:1007E0002AE0CE010E948A03800F911FDF91CF91F2
:1007F0001F910F91FF90EF90DF90CF900895AB0184
:10080000770F660B770B77FD0C94D6032AE00C94D8
:100810008A031F920F920FB60F9211242F933F93CA
:100820004F935F936F937F938F939F93AF93BF93F8
:10083000EF93FF938CE591E00E942401FF91EF91EB
:10084000BF91AF919F918F917F916F915F914F91E8
:100850003F912F910F900FBE0F901F9018951F92F0
:100860000F920FB60F9211242F938F939F93EF93B4
:10087000FF93E0916C01F0916D018081E091720134
:10088000F091730182FD1BC09081809175018F5F93
:100890008F7320917601821741F0E0917501F0E0AD
:1008A000E45AFE4F958F80937501FF91EF919F91D0
:1008B0008F912F910F900FBE0F901F9018958081F0
:1008C000F4CF1F920F920FB60F9211242F933F93E4
:1008D0008F939F93AF93BF9380914601909147016F
:1008E000A0914801B09149013091450123E0230FC7
:1008F0002D3758F50196A11DB11D20934501809318
:10090000460190934701A0934801B093490180911B
:100910004A0190914B01A0914C01B0914D0101967B
:10092000A11DB11D80934A0190934B01A0934C01EE
:10093000B0934D01BF91AF919F918F913F912F91B6
:100940000F900FBE0F901F90189526E8230F029668
:10095000A11DB11DD2CF1F920F920FB60F9211247D
:100960002F933F934F935F936F937F938F939F93B7
:10097000AF93BF93CF93DF93EF93FF9380914401A5
:10098000C0911D02D0E087FF24C010928500109214
:100990008400809144018F5F8093440180914401E1
:1009A000082E000C990B8C179D0724F480914401AC
:1009B0008C30C4F18091840090918500049680343D
:1009C0009C4908F47AC08091840090918500049637
:1009D00076C080914401082E000C990B8C179D075E
:1009E000C4F6E09144018E2FEE0F990BFC01EE0F3F
:1009F000FF1FE80FF91FE750FE4F808186FFC9CF28
:100A0000E09144018E2FEE0F990BFC01EE0FFF1FBA
:100A1000E80FF91FE750FE4F808160E08F730E945E
:100A2000B301B7CF2091840030918500E09144015B
:100A30008E2FEE0F990BFC01EE0FFF1FE80FF91F31
:100A4000E750FE4F81819281820F931F909389001E
:100A500080938800E09144018E2FEE0F990BFC01EA
:100A6000EE0FFF1FE80FF91FE750FE4F808186FF52
:100A700011C0E09144018E2FEE0F990BFC01EE0F97
:100A8000FF1FE80FF91FE750FE4F808161E08F7371
:100A90000E94B301FF91EF91DF91CF91BF91AF9190
:100AA0009F918F917F916F915F914F913F912F9186
:100AB0000F900FBE0F901F90189580E49CE99093C3
:100AC0008900809388008FEF80934401E3CF1092D8
:100AD0005F0110925E0188EE93E0A0E0B0E08093A9
:100AE000600190936101A0936201B093630188E07B
:100AF00091E090935D0180935C0185EC90E0909390
:100B000069018093680184EC90E090936B0180937D
:100B10006A0180EC90E090936D0180936C0181EC10
:100B200090E090936F0180936E0182EC90E090933F
:100B300071018093700186EC90E090937301809333
:100B40007201109275011092760110927701109245
:100B5000780180911D028C30F0F591E0980F909310
:100B60001D028093360290E0FC01EE0FFF1FE80F9C
:100B7000F91FE750FE4F88EB9BE092838183109230
:100B80002102109220028AE191E090931F0280934B
:100B90001E0282E0809322028FEF8093230283E083
:100BA0008093240284E08093250285E080932602CE
:100BB00086E08093270287E0809328021092290222
:100BC00010922A0210922B0210922C0210922D02E7
:100BD00081E00C94C4028FEF80933602D0CF7894DA
:100BE00084B5826084BD84B5816084BD85B5826032
:100BF00085BD85B5816085BD80916E0081608093E3
:100C00006E0010928100809181008260809381004B
:100C1000809181008160809381008091800081605B
:100C2000809380008091B10084608093B1008091B6
:100C3000B00081608093B00080917A0084608093DE
:100C40007A0080917A00826080937A0080917A00A5
:100C5000816080937A0080917A00806880937A0026
:100C60001092C100809136028C3008F050C088E0AC
:100C70000E94870080913602282F30E0F901EE0FA4
:100C8000FF1FE20FF31FE750FE4F9081907C9860AA
:100C9000908310923702109238022CE0622F0E944B
:100CA000790C829FB001112430E020E0AB01420FAB
:100CB000531FFA01EE0FFF1FE40FF51FE750FE4F21
:100CC000908196FD16C02F5F3F4F2C30310571F794
:100CD00081110FC01092800082E0809381001092F9
:100CE000850010928400B19A80916F008260809399
:100CF0006F00E09136028E2F90E0FC01EE0FFF1F97
:100D0000E80FF91FE750FE4F808180648083E091F7
:100D10006C01F0916D0182E08083E0916801F091B7
:100D200069011082E0916A01F0916B018FEC808380
:100D300010927401E0917001F091710186E080835E
:100D4000E0916E01F0916F01808180618083E0917C
:100D50006E01F0916F01808188608083E0916E0167
:100D6000F0916F01808180688083E0916E01F09145
:100D70006F0180818F7D808382E00E94C4028DE0BC
:100D80000E94870089E00E9487008AE00E94870015
:100D90008BE00E9487008CE00E9487008DE00E941B
:100DA0008700C8E8D0E098E5292E92E0392E24EBA0
:100DB000822E912CA12CB12C04E620E420937C00FF
:100DC00080917A00806480937A0080917A0086FD19
:100DD000FCCF80917800E0907900FE2CE82EB701DE
:100DE0000F2C000C880B990B0E94520B20E030E076
:100DF00040EA50E40E94070C20E030EC4FE754E456
:100E00000E94AF0A20E030E0A9010E943E0A6093F0
:100E1000560170935701809358019093590125EB27
:100E200030E0D7010E94850C2FEF33E040E050E026
:100E30000E94DA09290130935B0120935A018091C5
:100E40000201909103018217930709F470C1309356
:100E50005501209354018091540190915501853B97
:100E6000910509F099C1509255014092540181E0D9
:100E700090E090934F0180934E01A0915401B09166
:100E80005501A03292E0B907B4F5809137026E01A6
:100E9000C81AD10887FDD394CC0CDD1CCC0CDD1C0A
:100EA0000D2C000CEE08FF08809138029101281BE0
:100EB000310987FD3395220F331F220F331F032E75
:100EC000000C440B550B2C193D094E095F09A53B3D
:100ED000B10514F0A4EBB0E0B7FF02C0B0E0A0E0B1
:100EE0000E94040AA50194010E94DA09C20ED31ED1
:100EF000E41EF51ED601409136024C3080F58091FB
:100F000037029E01281B310987FD3395C901880FDF
:100F1000991F880F991FA817B90784F0809138028C
:100F20009101281B310987FD3395C901880F991F4D
:100F3000880F991FA817B9070CF4CD010297880FE5
:100F4000991F6FB7F89450E09A01220F331F240FB6
:100F5000351FF901E750FE4F928381836FBF809167
:100F60005A0190915B01909303018093020160E02C
:100F700080E00E94660362E271E08EE192E00E94EE
:100F80007B038091000190910101449709F056C0C4
:100F900080914E0190914F01019709F04BC0409113
:100FA000540150915501052E000C660B770B77FF0D
:100FB00008C18CE591E00E94D60361E371E08CE505
:100FC00091E00E947B03C0905601D0905701E090C1
:100FD0005801F0905901A7019601C701B6010E947E
:100FE000740C64E371E081111BC026013701E894A1
:100FF00077F82FEF3FEF4FE75FE7C301B2010E94A1
:10100000740C8111E4C02FEF3FEF4FE75FE7C3019E
:10101000B2010E94AA0A18160CF0D9C068E371E068
:101020008CE591E00E947B0361E371E08CE591E047
:101030000E947B0310920101109200018091000137
:101040009091010101969093010180930001E0903D
:101050005401F09055013AE0E316F10408F02BC179
:1010600061E080E00E94660360E471E08EE192E05E
:101070000E947B0361E082E00E946603609154015C
:10108000709155018EE192E00E94FF03809154011E
:10109000909155018E31910508F02AC161E08DE0F3
:1010A0000E94B30160E089E00E94B30160E08AE041
:1010B0000E94B30160E08BE00E94B30160E08CE02D
:1010C0000E94B30160E08DE00E94B3010E94FF0125
:1010D0002B013C0182E3C82ED12CE12CF12C0E9483
:1010E000FF016419750986099709683E73408105F7
:1010F0009105A8F381E0C81AD108E108F10898EE3B
:10110000490E93E0591E611C711CC114D104E10405
:10111000F10429F780E090E0892B09F44ECE0E947B
:101120001001882309F449CE0E94000045CE8CE5C9
:1011300091E00E940401181619060CF08CCE8CE583
:1011400091E00E94E200C0976C019093530180935C
:1011500052018CE591E00E94E200C0977C019093DF
:101160005101809350018CE591E00E94E2000C9DBA
:1011700090010D9D300D11246AE06E9DA0016F9DC0
:10118000500D1124240F351FC097280F391F30939D
:101190005501209354015FCE863B910549F450924E
:1011A00055014092540110924F0110924E0165CEAC
:1011B000853B910508F461CE50925501409254014F
:1011C0005CCE2AE08CE591E00E948A03F6CE2FEFF8
:1011D0003FEF4FE75FE4C701B6010E94020C18160B
:1011E0001CF46CE371E01CCF2FEF3FEF4FE75FEC97
:1011F000C701B6010E94AA0A87FDF3CF20E030E0C4
:10120000A901C701B6010E94AA0A87FF09C06DE2C1
:101210008CE591E00E944601F7FAF094F7F8F0941B
:101220002EE632E143E05AE3C701B6010E943E0ACE
:101230006B017C010E94210B2B013C010E94500B91
:101240009B01AC01C701B6010E943D0A6B017C0104
:101250002AE0B301A2018CE591E00E948A036EE2CC
:101260008CE591E00E94460114E0115009F4DCCEB7
:1012700020E030E040E251E4C701B6010E94070CD3
:101280002B013C010E94210B6B01F12CE12C2AE087
:10129000B701A6018CE591E00E948A03C701B6015F
:1012A0000E94500B9B01AC01C301B2010E943D0A98
:1012B0006B017C01DACFC7010A978A35910568F482
:1012C00061E080E00E94660361E471E08EE192E0FB
:1012D0000E947B0361E081E0CFCE64E6E616F10474
:1012E0000CF4D4CE61E080E00E946603B701CACE60
:1012F0009C012E5131092E31310530F460E08DE032
:101300000E94B30161E0CFCE9C012C5331092E31F4
:10131000310550F460E08DE00E94B30161E089E0A6
:101320000E94B30161E0C3CE9C012A5531092E31E0
:10133000310570F460E08DE00E94B30161E089E066
:101340000E94B30161E08AE00E94B30161E0B3CE84
:101350009C01285731092E31310590F460E08DE071
:101360000E94B30161E089E00E94B30161E08AE07C
:101370000E94B30161E08BE00E94B30161E09FCE67
:10138000863991050CF4A2CE60E08DE00E94B30195
:1013900061E089E00E94B30161E08AE00E94B3014C
:1013A00061E08BE00E94B30161E08CE00E94B30138
:1013B00061E089CE052E97FB1EF400940E94F1098E
:1013C00057FD07D00E940C0A07FC03D04EF40C9482
:1013D000F10950954095309521953F4F4F4F5F4F04
:1013E000089590958095709561957F4F8F4F9F4F91
:1013F00008950E942E0AA59F900DB49F900DA49F62
:10140000800D911D11240895B7FF0C94F9090E94D5
:10141000F909821B930B0895A1E21A2EAA1BBB1B8C
:10142000FD010DC0AA1FBB1FEE1FFF1FA217B307B0
:10143000E407F50720F0A21BB30BE40BF50B661FC6
:10144000771F881F991F1A9469F76095709580958A
:1014500090959B01AC01BD01CF010895A29FB00101
:10146000B39FC001A39F700D811D1124911DB29FD8
:10147000700D811D1124911D08955058BB27AA2776
:101480000E94550A0C94C80B0E94BA0B38F00E94B7
:10149000C10B20F039F49F3F19F426F40C94B70BDC
:1014A0000EF4E095E7FB0C94B10BE92F0E94D90BE9
:1014B00058F3BA17620773078407950720F079F489
:1014C000A6F50C94FB0B0EF4E0950B2EBA2FA02D75
:1014D0000B01B90190010C01CA01A0011124FF27E1
:1014E000591B99F0593F50F4503E68F11A16F040DC
:1014F000A22F232F342F4427585FF3CF46953795DB
:101500002795A795F0405395C9F77EF41F16BA0B9F
:10151000620B730B840BBAF09150A1F0FF0FBB1F4D
:10152000661F771F881FC2F70EC0BA0F621F731F96
:10153000841F48F4879577956795B795F7959E3FF3
:1015400008F0B0CF9395880F08F09927EE0F979584
:10155000879508950E948D0B08F481E008950E94FC
:10156000C30A0C94C80B0E94C10B58F00E94BA0B1E
:1015700040F029F45F3F29F00C94B10B51110C9409
:10158000FC0B0C94B70B0E94D90B68F39923B1F3B1
:10159000552391F3951B550BBB27AA276217730799
:1015A000840738F09F5F5F4F220F331F441FAA1F2D
:1015B000A9F335D00E2E3AF0E0E832D091505040E9
:1015C000E695001CCAF72BD0FE2F29D0660F771F97
:1015D000881FBB1F261737074807AB07B0E809F07D
:1015E000BB0B802DBF01FF2793585F4F3AF09E3F02
:1015F000510578F00C94B10B0C94FC0B5F3FE4F3B5
:10160000983ED4F3869577956795B795F7959F5F44
:10161000C9F7880F911D9695879597F90895E1E090
:10162000660F771F881FBB1F621773078407BA07EF
:1016300020F0621B730B840BBA0BEE1F88F7E0954A
:1016400008950E94E10B88F09F5798F0B92F9927D1
:10165000B751B0F0E1F0660F771F881F991F1AF09D
:10166000BA95C9F714C0B13091F00E94FB0BB1E0FC
:1016700008950C94FB0B672F782F8827B85F39F0FB
:10168000B93FCCF3869577956795B395D9F73EF436
:1016900090958095709561957F4F8F4F9F4F0895DE
:1016A000E89409C097FB3EF49095809570956195FC
:1016B0007F4F8F4F9F4F9923A9F0F92F96E9BB27B2
:1016C0009395F695879577956795B795F111F8CF2E
:1016D000FAF4BB0F11F460FF1BC06F5F7F4F8F4F99
:1016E0009F4F16C0882311F096E911C0772321F08F
:1016F0009EE8872F762F05C0662371F096E8862F27
:1017000070E060E02AF09A95660F771F881FDAF77D
:10171000880F9695879597F90895990F0008550FAA
:10172000AA0BE0E8FEEF16161706E807F907C0F067
:1017300012161306E407F50798F0621B730B840B6F
:10174000950B39F40A2661F0232B242B252B21F449
:1017500008950A2609F4A140A6958FEF811D811DE9
:10176000089597F99F6780E870E060E008959FEF23
:1017700080EC089500240A94161617061806090628
:10178000089500240A9412161306140605060895F7
:10179000092E0394000C11F4882352F0BB0F40F47F
:1017A000BF2B11F460FF04C06F5F7F4F8F4F9F4FBF
:1017B000089557FD9058440F551F59F05F3F71F041
:1017C0004795880F97FB991F61F09F3F79F08795A8
:1017D0000895121613061406551FF2CF4695F1DF31
:1017E00008C0161617061806991FF1CF86957105C1
:1017F000610508940895E894BB2766277727CB01F5
:1018000097F908950E948D0B08F48FEF08950E94B8
:101810001A0C0C94C80B0E94BA0B38F00E94C10B32
:1018200020F0952311F00C94B10B0C94B70B1124FC
:101830000C94FC0B0E94D90B70F3959FC1F3950F8C
:1018400050E0551F629FF001729FBB27F00DB11D44
:10185000639FAA27F00DB11DAA1F649F6627B00DD4
:10186000A11D661F829F2227B00DA11D621F739FBD
:10187000B00DA11D621F839FA00D611D221F749FCB
:101880003327A00D611D231F849F600D211D822F12
:10189000762F6A2F11249F5750409AF0F1F0882339
:1018A0004AF0EE0FFF1FBB1F661F771F881F915066
:1018B0005040A9F79E3F510580F00C94B10B0C9459
:1018C000FC0B5F3FE4F3983ED4F3869577956795DC
:1018D000B795F795E7959F5FC1F7FE2B880F911D90
:1018E0009695879597F908950E948D0B880B990B13
:1018F0000895991B79E004C0991F961708F0961B6C
:10190000881F7A95C9F7809508950E942E0AB7FF1F
:101910000895821B930B0895EE0FFF1F0590F4911D
:08192000E02D0994F894FFCFBB
:101928000100FFFF000000004601A600D30093015C
:101938000401E200F600000000007503A60025027D
:101948002402506F6C6F68612073657276613A206B
:10195800000D0A006E616E00696E66006F766600A3
:04196800303000001B
:00000001FF
